:100000000C9434000C9451000C9451000C94510049
:100010000C9451000C9451000C9451000C9451001C
:100020000C9451000C9451000C9451000C9451000C
:100030000C9451000C9451000C9451000C945100FC
:100040000C9451000C9451000C9451000C945100EC
:100050000C9451000C9451000C9451000C945100DC
:100060000C9451000C94510011241FBECFEFD8E026
:10007000DEBFCDBF12E0A0E0B1E0E0EFF5E302C0EB
:1000800005900D92AE3AB107D9F722E0AEEAB2E0A0
:1000900001C01D92A03CB207E1F70E9423050C9419
:1000A000F61A0C94000080FF0BC05C9A81FF0AC016
:1000B0005D9A82FF09C05E9A83FF08C05F9A089527
:1000C0005C98F4CF5D98F5CF5E98F6CF5F98089571
:1000D000CF93DF93EC0190E080E00E9408188883C2
:1000E00081E090E00E9408188983CE01DF91CF91D2
:1000F00008952FEF83ED90E3215080409040E1F789
:1001000000C0000085B194E0892785B92FEF8DE20A
:1001100092E2215080409040E1F700C0000085B19C
:100120008C6385B92FEF8DE292E2215080409040A0
:10013000E1F700C0000008950E94790085B198E0C1
:10014000892785B92FEF8DE292E2215080409040BF
:10015000E1F700C0000085B18C6385B92FEF8DE217
:1001600092E2215080409040E1F700C000000895E5
:100170000E949C0085B190E2892785B92FEF8DE21E
:1001800092E2215080409040E1F700C0000085B12C
:100190008C6385B92FEF8DE292E221508040904030
:1001A000E1F700C0000008950E94B80085B190E218
:1001B000892785B92FEF8DE292E22150804090404F
:1001C000E1F700C0000085B18C6385B92FEF8DE2A7
:1001D00092E2215080409040E1F700C00000089575
:1001E0000E94D40085B190E1892785B92FEF8DE277
:1001F00092E2215080409040E1F700C0000085B1BC
:100200008C6385B92FEF8DE292E2215080409040BF
:10021000E1F700C000000895CF93C82F299A829576
:100220008F700E9453002998299A8C2F0E945300A6
:10023000299887EC90E00197F1F700C00000CF917A
:100240000895CF93DF93EC018991882321F0289AB8
:100250000E940C01F9CFDF91CF91089528980C945A
:100260000C0181E00E942E018FE39FE10197F1F7DD
:1002700000C0000008950E949C000E94F0000E94AF
:1002800079002FEF8DE292E2215080409040E1F71B
:1002900000C0000008950E94310185E80E942E01EF
:1002A00080E091E00E94210181EC0E942E0188E013
:1002B00091E00E9421012FEF83ED90E321508040D7
:1002C0009040E1F700C0000008950E94310184E8E9
:1002D0000E942E0188E191E00E94210181EC0E94A0
:1002E0002E0188E091E00E9421012FEF81EE94E041
:1002F000215080409040E1F700C000000895CF9366
:10030000DF93EC0184E80E942E01DF93CF9387E214
:1003100091E09F938F938EEA92E09F938F930E9438
:100320001E188EEA92E00E9421012FEF83ED90E3E8
:10033000215080409040E1F700C000000F900F90E6
:100340000F900F900F900F90DF91CF910895CF9362
:10035000DF93EC0182EC0E942E01DF93CF9382E2C7
:1003600091E09F938F938EEA92E09F938F930E94E8
:100370001E188EEA92E00E9421012FEF83ED90E398
:10038000215080409040E1F700C000000F900F9096
:100390000F900F900F900F90DF91CF910895AF9233
:1003A000BF92CF92DF92EF92FF920F931F93CF9362
:1003B000DF938C017B010E944B010E949C000E94F4
:1003C000B8000E94F0002FEF8DE292E221508040B1
:1003D0009040E1F700C000002FEF83ED90E3215043
:1003E00080409040E1F700C000000E9465010E943B
:1003F000310185E80E942E0181E391E00E942101F4
:10040000C8010E94A701D0E0C0E094E0D92E28E006
:10041000C22E30E2B32E40E1A42E101611060CF0CD
:10042000E0C24B994CC0209709F049C085B18D2599
:1004300085B92FEF83ED90E3215080409040E1F7A4
:1004400000C0000085B18C6385B90E94310184E849
:100450000E942E0181E391E00E94210183EC0E9421
:100460002E018AE391E00E9421012FEF81EE94E0BA
:10047000215080409040E1F700C00000C1E0D0E092
:100480004A9903C0C130D10571F14B9B04C0499B0F
:1004900002C0489950C0C130D10509F04CC001508C
:1004A00011092FEF89E698E1215080409040E1F753
:1004B00000C0000040C08AE0E82EF12CAECF4A9B7D
:1004C00004C0499B02C04899DBCF2097C9F6015070
:1004D00011092FEF89E698E1215080409040E1F723
:1004E00000C00000CDCF85B18C2585B92FEF83EDFD
:1004F00090E3215080409040E1F700C0000085B1BA
:100500008C6385B984E80E942E0181E391E00E940A
:10051000210184EC0E942E018AE391E00E942101D6
:100520002FEF81EE94E0215080409040E1F700C031
:100530000000C2E0D0E04B9903C0C230D105A9F061
:100540004A9B04C0499B02C0489937C0C230D105BC
:10055000A1F5015011092FEF89E698E12150804063
:100560009040E1F700C0000028C085B18D2585B915
:100570002FEF83ED90E3215080409040E1F700C0E1
:10058000000085B18C6385B984E80E942E0181E367
:1005900091E00E94210185EC0E942E018AE391E006
:1005A0000E9421012FEF81EE94E021508040904085
:1005B000E1F700C00000C3E0D0E04A9903C0C330B7
:1005C000D105A9F04B9B04C0499B02C0489937C094
:1005D000C330D105A1F5015011092FEF89E698E14B
:1005E000215080409040E1F700C0000028C085B154
:1005F0008C2585B92FEF83ED90E32150804090400A
:10060000E1F700C0000085B18C6385B984E80E94E1
:100610002E0181E391E00E94210186EC0E942E01CF
:100620008AE391E00E9421012FEF81EE94E02150B6
:1006300080409040E1F700C00000C4E0D0E048995D
:1006400003C0C430D105A9F04B9B04C04A9B02C033
:10065000499937C0C430D105A1F5015011092FEFD8
:1006600089E698E1215080409040E1F700C0000009
:1006700028C085B18B2585B92FEF83ED90E32150FC
:1006800080409040E1F700C0000085B18C6385B9DF
:1006900084E80E942E0181E391E00E94210187EC11
:1006A0000E942E018AE391E00E9421012FEF81EE4A
:1006B00094E0215080409040E1F700C00000C5E088
:1006C000D0E04B9903C0C530D105A9F04A9B04C0C6
:1006D000499B02C0489937C0C530D105A1F50150EA
:1006E00011092FEF81EE94E0215080409040E1F716
:1006F00000C0000028C085B18D2585B92FEF83ED9E
:1007000090E3215080409040E1F700C0000085B1A7
:100710008C6385B984E80E942E0181E391E00E94F8
:10072000210188EC0E942E018AE391E00E942101C0
:100730002FEF81EE94E0215080409040E1F700C01F
:100740000000C6E0D0E04A9903C0C630D105A9F048
:100750004B9B04C0499B02C0489937C0C630D105A5
:10076000A1F5015011092FEF81EE94E02150804056
:100770009040E1F700C0000028C085B18C2585B904
:100780002FEF83ED90E3215080409040E1F700C0CF
:10079000000085B18C6385B984E80E942E0181E355
:1007A00091E00E94210189EC0E942E018AE391E0F0
:1007B0000E9421012FEF81EE94E021508040904073
:1007C000E1F700C00000C7E0D0E0489903C0C7309F
:1007D000D105A9F04B9B04C0499B02C04A9937C080
:1007E000C730D105A1F5015011092FEF81EE94E03A
:1007F000215080409040E1F700C0000028C085B142
:100800008B2585B92FEF83ED90E3215080409040F8
:10081000E1F700C0000085B18C6385B984E80E94CF
:100820002E0181E391E00E9421018AEC0E942E01B9
:100830008AE391E00E9421012FEF81EE94E02150A4
:1008400080409040E1F700C00000C8E0D0E0489947
:1008500003C0C830D105A9F04B9B04C0499B02C01E
:100860004A9937C0C830D105A1F5015011092FEFC1
:1008700081EE94E0215080409040E1F700C00000FC
:1008800028C085B18B2585B92FEF83ED90E32150EA
:1008900080409040E1F700C0000085B18C6385B9CD
:1008A00084E80E942E0181E391E00E9421018BECFB
:1008B0000E942E018AE391E00E9421012FEF81EE38
:1008C00094E0215080409040E1F700C00000C9E072
:1008D000D0E0499903C0C930D105D9F04B9B04C081
:1008E0004A9B02C0499977C0C930D10509F073C04D
:1008F000015011092FEF81EE94E02150804090408B
:10090000E1F700C000002AE0E216F10409F085CD0D
:100910003DC085B18A2585B92FEF83ED90E3215045
:1009200080409040E1F700C0000085B18C6385B93C
:1009300084E80E942E0181E391E00E9421018CEC69
:100940000E942E018AE391E00E9421012FEF81EEA7
:1009500094E0215080409040E1F700C000000E94E8
:10096000310180E80E942E018CE391E00E94210178
:100970002FEF8DE399E4215080409040E1F700C0D3
:100980000000E7012196CA30D10539F42196CA301A
:10099000D1050CF490CDCAE0D0E00E943101CE0127
:1009A0000E947F01C8010E94A7019FEF23ED80E311
:1009B000915020408040E1F700C00000B801CE0116
:1009C000DF91CF911F910F91FF90EF90DF90CF902B
:1009D000BF90AF9008958AE0E816F10409F01DCDAC
:1009E000D5CFE701DACFFF920F931F93CF93DF9319
:1009F00000D0CDB7DEB78C01CE0101960E94680011
:100A000089819A8180179107B4F490E080E00E9478
:100A10000818081729F0602F90E080E00E94101855
:100A200081E090E00E940818181729F0612F81E0FA
:100A300090E00E9410180F900F90DF91CF911F91BE
:100A40000F91FF90089584B18C6384B9389884B174
:100A50008C6384B985B18C6385B98AB18AB9549A9B
:100A6000559A569A579A219A209A8FE59AEE0197AD
:100A7000F1F700C0000028982998C3E0299A83E084
:100A80000E94530029988FE19EE40197F1F700C07E
:100A90000000C15099F7299A82E00E9453002998DA
:100AA0008FE99FE00197F1F700C0000088E20E9403
:100AB0002E0188E00E942E0181E00E942E018FE32A
:100AC0009FE10197F1F700C0000086E00E942E012F
:100AD0008CE00E942E018EEB92E00E946800B5E04F
:100AE000EB2EF12C07E711E0AEEACA2EA2E0DA2ED7
:100AF000F092BD02E092BC021092BB021092BA02C8
:100B0000489B5BC00E94310183E80E942E018FE464
:100B100091E00E94210183EC0E942E018BE591E07F
:100B20000E9421019FEF29E688E1915020408040FA
:100B3000E1F700C00000499B04C04A9B02C04B99EA
:100B4000DFCF0E94310180E80E942E0186E691E00D
:100B50000E942101C5E0D0E0DF93CF931F930F9354
:100B6000DF92CF920E941E1881EC0E942E018EEA25
:100B700092E00E9421018FEF93ED20E3815090409D
:100B80002040E1F700C0000021970F900F900F90D8
:100B90000F900F900F9001F70E94310183E80E949F
:100BA0002E0187E891E00E94210186EC0E942E012F
:100BB00081E991E00E942101A3CF489999CF0E9439
:100BC000310182E80E942E0186E991E00E94210114
:100BD00082EC0E942E018091BF028F938091BE0211
:100BE0008F938EE291E09F938F938EEA92E09F9392
:100BF0008F930E941E188EEA92E00E9421018FEFCF
:100C00009DE329E4815090402040E1F700C00000BE
:100C10000F900F900F900F900F900F900FEF1FEF0E
:100C20008091BA029091BB0297FF02C00C94F21718
:100C3000892B09F0AFC00E94310185E80E942E0186
:100C400081EA91E00E9421018FEF97EA21E681502D
:100C500090402040E1F700C00000C091BA02D0915E
:100C6000BB02C090BC02D090BD020E944B010E940A
:100C700079008FEF93ED20E3815090402040E1F721
:100C800000C000000E9465018FEF99E628E18150C5
:100C900090402040E1F700C000000E94310185E84B
:100CA0000E942E0181EA91E00E9421018091BC0204
:100CB0009091BD020E94A7011C141D040CF043C0BA
:100CC0004B990AC185B194E0892785B98FEF93EDDF
:100CD00020E3815090402040E1F700C0000085B142
:100CE0008C6385B90E94310185E80E942E0181EA5A
:100CF00091E00E94210187EC0E942E018AE391E09D
:100D00000E9421018FEF91EE24E08150904020401D
:100D1000E1F700C000000E94310180E80E942E012E
:100D200089EA91E00E9421018FEF9DE329E481503F
:100D300090402040E1F700C000002196C130D1056D
:100D400011F4C1E0D0E00E943101CE010E947F0188
:100D5000C6010E94A7019FEF23ED80E39150204040
:100D60008040E1F700C00000D092BD02C092BC02FA
:100D7000D093BB02C093BA02CE010E94F3048091CB
:100D8000BC029091BD021816190624F01093BB0204
:100D90000093BA028091BA029091BB02019709F0C8
:100DA00037C10E94310185E80E942E018BEB91E052
:100DB0000E9421019FEF27EA81E691502040804068
:100DC000E1F700C00000A090BA02B090BB02C09052
:100DD000BC02D090BD020E944B010E949C009FEF7C
:100DE00023ED80E3915020408040E1F700C00000F7
:100DF0000E9465019FEF29E688E1915020408040E4
:100E0000E1F700C000000E94310185E80E942E0138
:100E10008BEB91E00E9421018091BC029091BD0278
:100E20000E94A701D0E0C0E0E4E09E2EF8E08F2E03
:100E30001C141D040CF08BC14B9969C0209709F05C
:100E400066C085B1892585B99FEF23ED80E3915078
:100E500020408040E1F700C0000085B18C6385B977
:100E60000E94310185E80E942E018BEB91E00E94E7
:100E7000210187EC0E942E018AE391E00E9421016A
:100E80009FEF21EE84E0915020408040E1F700C0C8
:100E90000000C1E0D0E04A9904C0C130D10509F496
:100EA0004CC04B9B04C0499B02C048990FC0C13045
:100EB000D10561F421E0C21AD1088FEF99E628E14B
:100EC000815090402040E1F700C0000082E0A81669
:100ED000B10409F0ADCF6EC04A9B04C0499B02C06B
:100EE00048990CC081E0C81AD1089FEF29E688E133
:100EF000915020408040E1F700C00000C130D10592
:100F000009F0DACE1ECF72E0A72EB12C91CF4A9B0A
:100F100004C0499B02C04899BECF209709F0BBCFBF
:100F200091E0C91AD1082FEF89E698E1215080405D
:100F30009040E1F700C00000AECF85B1882585B9AB
:100F40002FEF83ED90E3215080409040E1F700C007
:100F5000000085B18C6385B985E80E942E018BEB7A
:100F600091E00E94210188EC0E942E018AE391E029
:100F70000E9421012FEF81EE94E0215080409040AB
:100F8000E1F700C000000E94310180E80E942E01BC
:100F900083EC91E00E9421012FEF8DE399E4215031
:100FA00080409040E1F700C00000E5012196C2308A
:100FB000D10539F42196C230D1050CF4A4CFC2E09A
:100FC000D0E00E943101CE010E947F01C6010E9443
:100FD000A7019FEF23ED80E3915020408040E1F78F
:100FE00000C00000D092BD02C092BC02D093BB02F0
:100FF000C093BA02CE010E94F3048091BC0290918A
:10100000BD021816190624F01093BB020093BA0211
:101010008091BA029091BB02029709F067C10E94C9
:10102000310185E80E942E0185ED91E00E942101A9
:101030009FEF27EA81E6915020408040E1F700C011
:101040000000A090BA02B090BB02C090BC02D09049
:10105000BD020E944B010E94B8009FEF23ED80E388
:10106000915020408040E1F700C000000E946501DF
:101070009FEF29E688E1915020408040E1F700C0D1
:1010800000000E94310185E80E942E0185ED91E06B
:101090000E9421018091BC029091BD020E94A70193
:1010A000D0E0C0E044E0942E58E0852E60E2762E39
:1010B0001C141D040CF0B3C14B994FC0209709F0CC
:1010C0004CC085B1892585B99FEF23ED80E3915010
:1010D00020408040E1F700C0000085B18C6385B9F5
:1010E0000E94310185E80E942E0185ED91E00E9469
:1010F000210187EC0E942E018AE391E00E942101E8
:101100009FEF21EE84E0915020408040E1F700C045
:101110000000C1E0D0E04A9903C0C130D10591F18F
:101120004B9B04C0499B02C0489954C0C130D105B3
:1011300009F050C021E0C21AD1088FEF99E628E1EA
:10114000815090402040E1F700C0000043C0E5011D
:1011500038CF33E0A32EB12CABCF4A9B04C0499BC0
:1011600002C04899D8CF2097B1F691E0C91AD108AA
:101170002FEF89E698E1215080409040E1F700C0D0
:101180000000C9CF85B1882585B92FEF83ED90E3A5
:10119000215080409040E1F700C0000085B18C6391
:1011A00085B985E80E942E0185ED91E00E9421011C
:1011B00088EC0E942E018AE391E00E9421012FEF2A
:1011C00081EE94E0215080409040E1F700C00000A3
:1011D000C2E0D0E0489903C0C230D105E1F04B9B9A
:1011E00004C04A9B02C0499914C1C230D10509F01C
:1011F00010C181E0C81AD1089FEF29E688E191501B
:1012000020408040E1F700C0000093E0A916B1043F
:1012100009F04ECF3DC085B1872585B98FEF93ED9D
:1012200020E3815090402040E1F700C0000085B1EC
:101230008C6385B985E80E942E0185ED91E00E94BE
:10124000210189EC0E942E018AE391E00E94210194
:101250008FEF91EE24E0815090402040E1F700C0F4
:1012600000000E94310180E80E942E018DED91E086
:101270000E9421018FEF9DE329E48150904020409E
:10128000E1F700C00000E5012196C330D10539F433
:101290002196C330D1050CF45CCFC3E0D0E00E94AE
:1012A0003101CE010E947F01C6010E94A7018FEF8C
:1012B00093ED20E3815090402040E1F700C0000012
:1012C000D092BD02C092BC02D093BB02C093BA02BE
:1012D000CE010E94F3048091BC029091BD021816C9
:1012E000190624F01093BB020093BA028091BA024F
:1012F0009091BB02039709F0ADC10E94310185E8CE
:101300000E942E018FEE91E00E9421018FEF97EA5B
:1013100021E6815090402040E1F700C00000A090FD
:10132000BA02B090BB02C090BC02D090BD020E9435
:101330004B010E94D4008FEF93ED20E38150904049
:101340002040E1F700C000000E9465010E943101C9
:1013500085E80E942E018FEE91E00E942101C601D6
:101360000E94A701D0E0C0E084E0882E98E0792EAA
:1013700020E2922E1C141D040CF007C24B9955C09C
:10138000209709F052C085B1882585B98FEF93ED7C
:1013900020E3815090402040E1F700C0000085B17B
:1013A0008C6385B90E94310185E80E942E018FEE81
:1013B00091E00E94210186EC0E942E018AE391E0D7
:1013C0000E9421018FEF91EE24E081509040204057
:1013D000E1F700C00000C1E0D0E04A9903C0C1308D
:1013E000D105C1F14B9B04C0499B02C048995AC02A
:1013F000C130D10509F056C091E0C91AD1082FEFCC
:1014000081EE94E0215080409040E1F700C0000060
:1014100049C023E0A216B10409F04ACE39CFE50154
:101420003ECFB4E0AB2EB12CA5CF4A9B04C0499B64
:1014300002C04899D2CF209781F681E0C81AD1081E
:101440009FEF21EE84E0915020408040E1F700C002
:101450000000C3CF85B1872585B99FEF23ED80E3D9
:10146000915020408040E1F700C0000085B18C63BE
:1014700085B985E80E942E018FEE91E00E9421013E
:1014800087EC0E942E018AE391E00E9421019FEFE8
:1014900021EE84E0915020408040E1F700C0000040
:1014A000C2E0D0E0489903C0C230D105B1F04B9BF7
:1014B00004C0499B02C04A9938C0C230D105A9F581
:1014C00021E0C21AD1088FEF91EE24E081509040C4
:1014D0002040E1F700C0000028C085B1892585B90A
:1014E0002FEF83ED90E3215080409040E1F700C062
:1014F000000085B18C6385B985E80E942E018FEECE
:1015000091E00E94210188EC0E942E018AE391E083
:101510000E9421012FEF81EE94E021508040904005
:10152000E1F700C00000C3E0D0E0489903C0C33039
:10153000D105E1F04B9B04C0499B02C04A991FC1F1
:10154000C330D10509F01BC181E0C81AD1089FEF53
:1015500021EE84E0915020408040E1F700C000007F
:1015600094E0A916B10409F005CF46C085B18925DC
:1015700085B98FEF93ED20E3815090402040E1F753
:1015800000C0000085B18C6385B985E80E942E01FA
:101590008FEE91E00E94210189EC0E942E018AE3E6
:1015A00091E00E9421018FEF91EE24E08150904064
:1015B0002040E1F700C000008FEF91EE24E0815061
:1015C00090402040E1F700C000000E94310180E817
:1015D0000E942E0187EF91E00E9421018FEF9DE391
:1015E00029E4815090402040E1F700C00000E5016F
:1015F0002196C430D10539F42196C430D1050CF4BC
:1016000010CFC4E0D0E00E943101CE010E947F01E2
:10161000C6010E94A7018FEF93ED20E38150904017
:101620002040E1F700C00000D092BD02C092BC0291
:10163000D093BB02C093BA02CE010E94F304809102
:10164000BC029091BD021816190624F01093BB023B
:101650000093BA028091BA029091BB02049709F0FC
:10166000E9C10E94310185E80E942E0189E092E0E3
:101670000E9421018FEF97EA21E68150904020409F
:10168000E1F700C00000A090BA02B090BB02C09089
:10169000BC02D090BD020E944B010E94F0008FEF6F
:1016A00093ED20E3815090402040E1F700C000001E
:1016B0000E9465010E94310185E80E942E0189E0A7
:1016C00092E00E942101C6010E94A701D0E0C0E083
:1016D00074E0872EE8E07E2EF0E29F2EA0E16A2ED5
:1016E0001C141D040CF04AC24B9955C0209709F0F8
:1016F00052C085B1882585B98FEF93ED20E38150E5
:1017000090402040E1F700C0000085B18C6385B9AE
:101710000E94310185E80E942E0189E092E00E943A
:10172000210185EC0E942E018AE391E00E942101B3
:101730008FEF91EE24E0815090402040E1F700C00F
:101740000000C1E0D0E04A9903C0C130D105C1F129
:101750004B9B04C0499B02C048995AC0C130D10577
:1017600009F056C091E0C91AD1082FEF81EE94E03C
:10177000215080409040E1F700C0000049C024E0C3
:10178000A216B10409F0F6CD37CFE5013CCF65E0F4
:10179000A62EB12CA5CF4A9B04C0499B02C04899F4
:1017A000D2CF209781F681E0C81AD1089FEF21EEB1
:1017B00084E0915020408040E1F700C00000C3CF9A
:1017C00085B1872585B99FEF23ED80E391502040B7
:1017D0008040E1F700C0000085B18C6385B985E8E1
:1017E0000E942E0189E092E00E94210186EC0E9475
:1017F0002E018AE391E00E9421019FEF21EE84E017
:10180000915020408040E1F700C00000C2E0D0E0ED
:10181000489903C0C230D105B1F04B9B04C0499B2D
:1018200002C04A9938C0C230D105A9F521E0C21AD8
:10183000D1088FEF91EE24E0815090402040E1F7F5
:1018400000C0000028C085B1892585B92FEF83ED40
:1018500090E3215080409040E1F700C0000085B146
:101860008C6385B985E80E942E0189E092E00E9490
:10187000210187EC0E942E018AE391E00E94210160
:101880002FEF81EE94E0215080409040E1F700C0BE
:101890000000C3E0D0E0489903C0C330D105B1F0E7
:1018A0004B9B04C0499B02C04A9938C0C330D10544
:1018B000A9F581E0C81AD1089FEF21EE84E091508C
:1018C00020408040E1F700C0000028C085B1892594
:1018D00085B98FEF93ED20E3815090402040E1F7F0
:1018E00000C0000085B18C6385B985E80E942E0197
:1018F00089E092E00E94210188EC0E942E018AE397
:1019000091E00E9421018FEF91EE24E08150904000
:101910002040E1F700C00000C4E0D0E0499903C0D6
:10192000C430D105E1F04B9B04C04A9B02C04999E9
:101930001FC1C430D10509F01BC191E0C91AD108FB
:101940002FEF81EE94E0215080409040E1F700C0FD
:10195000000025E0A216B10409F0C2CE3DC085B159
:10196000862585B99FEF23ED80E39150204080408C
:10197000E1F700C0000085B18C6385B985E80E945D
:101980002E0189E092E00E94210189EC0E942E0143
:101990008AE391E00E9421019FEF21EE84E09150C3
:1019A00020408040E1F700C000000E94310180E843
:1019B0000E942E0181E192E00E9421019FEF2DE320
:1019C00089E4915020408040E1F700C00000E5012B
:1019D0002196C530D10539F42196C530D1050CF4D6
:1019E000D6CEC5E0D0E00E943101CE010E947F0139
:1019F000C6010E94A7019FEF23ED80E39150204094
:101A00008040E1F700C00000D092BD02C092BC024D
:101A1000D093BB02C093BA02CE010E94F30480911E
:101A2000BC029091BD021816190624F01093BB0257
:101A30000093BA028091BA029091BB02059709F017
:101A400035C20E94310185E80E942E0183E292E0B6
:101A50000E9421019FEF27EA81E6915020408040BB
:101A6000E1F700C00000A090BA02B090BB02C090A5
:101A7000BC02D090BD020E944B010E94B8000E949F
:101A8000B8009FEF2DE282E2915020408040E1F7C4
:101A900000C000009FEF23ED80E391502040804084
:101AA000E1F700C000000E9465010E94310185E855
:101AB0000E942E0183E292E00E942101C6010E9451
:101AC000A701D0E0C0E034E0932E48E0842E50E23D
:101AD000752E1C141D040CF08DC24B9955C0209717
:101AE00009F052C085B1892585B99FEF23ED80E3C8
:101AF000915020408040E1F700C0000085B18C6328
:101B000085B90E94310185E80E942E0183E292E0AE
:101B10000E94210185EC0E942E018AE391E00E943F
:101B200021019FEF21EE84E0915020408040E1F7B9
:101B300000C00000C1E0D0E04A9903C0C130D10527
:101B4000C1F14B9B04C0499B02C048995AC0C130A7
:101B5000D10509F056C021E0C21AD1088FEF99E6ED
:101B600028E1815090402040E1F700C0000049C0CA
:101B700085E0A816B10409F0B3CD2ECFE50133CF2F
:101B800026E0A22EB12CA5CF4A9B04C0499B02C0DF
:101B90004899D2CF209781F691E0C91AD1082FEF4A
:101BA00089E698E1215080409040E1F700C00000B4
:101BB000C3CF85B1882585B92FEF83ED90E3215000
:101BC00080409040E1F700C0000085B18C6385B98A
:101BD00085E80E942E0183E292E00E94210186ECBA
:101BE0000E942E018AE391E00E9421012FEF81EEF5
:101BF00094E0215080409040E1F700C00000C2E036
:101C0000D0E0489903C0C230D105B1F04B9B04C06D
:101C10004A9B02C0499938C0C230D105A9F581E07C
:101C2000C81AD1089FEF29E688E1915020408040F2
:101C3000E1F700C0000028C085B1872585B98FEF86
:101C400093ED20E3815090402040E1F700C0000078
:101C500085B18C6385B985E80E942E0183E292E00C
:101C60000E94210187EC0E942E018AE391E00E94EC
:101C700021018FEF91EE24E0815090402040E1F768
:101C800000C00000C3E0D0E04B9903C0C330D105D1
:101C9000B1F04A9B04C0499B02C0489938C0C33088
:101CA000D105A9F591E0C91AD1082FEF89E698E18D
:101CB000215080409040E1F700C0000028C085B16D
:101CC000892585B99FEF23ED80E391502040804026
:101CD000E1F700C0000085B18C6385B985E80E94FA
:101CE0002E0183E292E00E94210188EC0E942E01E5
:101CF0008AE391E00E9421019FEF21EE84E0915060
:101D000020408040E1F700C00000C4E0D0E04A99E4
:101D100003C0C430D105B1F04B9B04C0499B02C045
:101D2000489938C0C430D105A9F521E0C21AD108BC
:101D30008FEF99E628E1815090402040E1F700C004
:101D4000000028C085B1882585B92FEF83ED90E389
:101D5000215080409040E1F700C0000085B18C63C5
:101D600085B985E80E942E0183E292E00E9421015C
:101D700089EC0E942E018AE391E00E9421012FEF5D
:101D800081EE94E0215080409040E1F700C00000D7
:101D9000C5E0D0E0489903C0C530D105E1F04B9BC8
:101DA00004C04A9B02C049991FC1C530D10509F042
:101DB0001BC181E0C81AD1089FEF29E688E1915044
:101DC00020408040E1F700C0000096E0A916B10471
:101DD00009F07FCE3DC085B1872585B98FEF93EDA2
:101DE00020E3815090402040E1F700C0000085B121
:101DF0008C6385B985E80E942E0183E292E00E94FF
:101E000021018AEC0E942E018AE391E00E942101C7
:101E10008FEF91EE24E0815090402040E1F700C028
:101E200000000E94310180E80E942E018BE292E0C6
:101E30000E9421018FEF9DE329E4815090402040D2
:101E4000E1F700C00000E5012196C630D10539F464
:101E50002196C630D1050CF493CEC6E0D0E00E94A6
:101E60003101CE010E947F01C6010E94A7018FEFC0
:101E700093ED20E3815090402040E1F700C0000046
:101E8000D092BD02C092BC02D093BB02C093BA02F2
:101E9000CE010E94F3048091BC029091BD021816FD
:101EA000190624F01093BB020093BA028091BA0283
:101EB0009091BB02069709F078C20E94310185E833
:101EC0000E942E018DE392E00E9421018FEF97EA9C
:101ED00021E6815090402040E1F700C00000A09032
:101EE000BA02B090BB02C090BC02D090BD020E946A
:101EF0004B010E94D4000E94B8008FEF9DE222E2C5
:101F0000815090402040E1F700C000008FEF93ED3A
:101F100020E3815090402040E1F700C000000E9483
:101F200065010E94310185E80E942E018DE392E057
:101F30000E942101C6010E94A701D0E0C0E0B4E0E8
:101F40008B2E88E0782E90E2992E1C141D040CF044
:101F5000C7C24B9955C0209709F052C085B188255A
:101F600085B98FEF93ED20E3815090402040E1F759
:101F700000C0000085B18C6385B90E94310185E8FD
:101F80000E942E018DE392E00E94210184EC0E94C8
:101F90002E018AE391E00E9421018FEF91EE24E06F
:101FA000815090402040E1F700C00000C1E0D0E047
:101FB0004A9903C0C130D105C1F14B9B04C0499B74
:101FC00002C048995AC0C130D10509F056C091E00D
:101FD000C91AD1082FEF81EE94E021508040904043
:101FE000E1F700C0000049C026E0A216B10409F0E4
:101FF00070CD2ECFE50133CFA7E0AA2EB12CA5CF0F
:102000004A9B04C0499B02C04899D2CF209781F6D1
:1020100081E0C81AD1089FEF21EE84E09150204062
:102020008040E1F700C00000C3CF85B1872585B9A6
:102030009FEF23ED80E3915020408040E1F700C006
:10204000000085B18C6385B985E80E942E018DE37F
:1020500092E00E94210185EC0E942E018AE391E02A
:102060000E9421019FEF21EE84E0915020408040AA
:10207000E1F700C00000C2E0D0E0489903C0C230E0
:10208000D105B1F04B9B04C0499B02C04A9938C0AE
:10209000C230D105A9F521E0C21AD1088FEF91EE27
:1020A00024E0815090402040E1F700C0000028C0AB
:1020B00085B1892585B92FEF83ED90E321508040CC
:1020C0009040E1F700C0000085B18C6385B985E8D8
:1020D0000E942E018DE392E00E94210186EC0E9475
:1020E0002E018AE391E00E9421012FEF81EE94E01E
:1020F000215080409040E1F700C00000C3E0D0E0F4
:10210000489903C0C330D105B1F04B9B04C0499B33
:1021100002C04A9938C0C330D105A9F581E0C81A78
:10212000D1089FEF21EE84E0915020408040E1F7FC
:1021300000C0000028C085B1892585B98FEF93EDD7
:1021400020E3815090402040E1F700C0000085B1BD
:102150008C6385B985E80E942E018DE392E00E9490
:10216000210187EC0E942E018AE391E00E94210167
:102170008FEF91EE24E0815090402040E1F700C0C5
:102180000000C4E0D0E04B9903C0C430D105B1F0E9
:102190004A9B04C0499B02C0489938C0C430D1054D
:1021A000A9F591E0C91AD1082FEF89E698E12150ED
:1021B00080409040E1F700C0000028C085B188252C
:1021C00085B99FEF23ED80E3915020408040E1F7F7
:1021D00000C0000085B18C6385B985E80E942E019E
:1021E0008DE392E00E94210188EC0E942E018AE397
:1021F00091E00E9421019FEF21EE84E09150204068
:102200008040E1F700C00000C5E0D0E04A9903C07B
:10221000C530D105B1F04B9B04C0499B02C0489921
:1022200038C0C530D105A9F521E0C21AD1088FEF19
:1022300099E628E1815090402040E1F700C000007D
:1022400028C085B1872585B92FEF83ED90E3215014
:1022500080409040E1F700C0000085B18C6385B9F3
:1022600085E80E942E018DE392E00E94210189EC15
:102270000E942E018AE391E00E9421012FEF81EE5E
:1022800094E0215080409040E1F700C00000C6E09B
:10229000D0E0489903C0C630D105E1F04B9B04C0A3
:1022A0004A9B02C0499916C1C630D10509F012C136
:1022B00081E0C81AD1089FEF29E688E191502040BB
:1022C0008040E1F700C0000097E0A916B10409F0D2
:1022D0003CCE3DC085B1892585B98FEF93ED20E3D4
:1022E000815090402040E1F700C0000085B18C6330
:1022F00085B985E80E942E018DE392E00E942101BC
:102300008AEC0E942E018AE391E00E9421018FEF66
:1023100091EE24E0815090402040E1F700C00000A1
:102320000E94310180E80E942E0185E492E00E9423
:1023300021018FEF9DE329E4815090402040E1F797
:1023400000C00000E5012196C730D10539F421967F
:10235000C730D1050CF450CEC7E0D0E00E94310167
:10236000CE010E947F01C6010E94A7018FEF93ED6D
:1023700020E3815090402040E1F700C00000D0925F
:10238000BD02C092BC02D093BB02C093BA02CE0180
:102390000E94F3048091BC029091BD0218161906A8
:1023A00024F01093BB020093BA028091BA0290917C
:1023B000BB02079709F0B2C20E94310185E80E9472
:1023C0002E0187E592E00E9421018FEF97EA21E636
:1023D000815090402040E1F700C00000A090BA0278
:1023E000B090BB02C090BC02D090BD020E944B01D5
:1023F0000E943B018FEF93ED20E3815090402040FD
:10240000E1F700C000000E9465010E94310185E8EB
:102410000E942E0187E592E00E942101C6010E94E0
:10242000A701D0E0C0E064E0962E78E0872EE0E2DD
:102430007E2EF0E16F2E1C141D040CF00CC34B9982
:1024400055C0209709F052C085B1892585B98FEF15
:1024500093ED20E3815090402040E1F700C0000060
:1024600085B18C6385B90E94310185E80E942E01F7
:1024700087E592E00E94210184EC0E942E018AE30C
:1024800091E00E9421018FEF91EE24E08150904075
:102490002040E1F700C00000C1E0D0E04A9903C04D
:1024A000C130D105C1F14B9B04C0499B02C0489982
:1024B0005AC0C130D10509F056C091E0C91AD108FF
:1024C0002FEF89E698E1215080409040E1F700C06D
:1024D000000049C027E0A216B10409F036CD37CF7D
:1024E000E5013CCF58E0A52EB12CA5CF4A9B04C0F6
:1024F000499B02C04899D2CF209781F681E0C81A43
:10250000D1089FEF29E688E1915020408040E1F713
:1025100000C00000C3CF85B1882585B99FEF23EDAA
:1025200080E3915020408040E1F700C0000085B179
:102530008C6385B985E80E942E0187E592E00E94B0
:10254000210185EC0E942E018AE391E00E94210185
:102550009FEF21EE84E0915020408040E1F700C0E1
:102560000000C2E0D0E04B9903C0C230D105B1F009
:102570004A9B04C0499B02C0489938C0C230D1056B
:10258000A9F521E0C21AD1088FEF91EE24E0815025
:1025900090402040E1F700C0000028C085B18925A7
:1025A00085B92FEF83ED90E3215080409040E1F713
:1025B00000C0000085B18C6385B985E80E942E01BA
:1025C00087E592E00E94210186EC0E942E018AE3B9
:1025D00091E00E9421012FEF81EE94E02150804094
:1025E0009040E1F700C00000C3E0D0E04A9903C08A
:1025F000C330D105B1F04B9B04C0499B02C0489940
:1026000038C0C330D105A9F581E0C81AD1089FEFC1
:1026100021EE84E0915020408040E1F700C00000AE
:1026200028C085B1882585B98FEF93ED20E38150CF
:1026300090402040E1F700C0000085B18C6385B96F
:1026400085E80E942E0187E592E00E94210187EC37
:102650000E942E018AE391E00E9421018FEF91EE0A
:1026600024E0815090402040E1F700C00000C4E029
:10267000D0E0489903C0C430D105B1F04B9B04C0F1
:10268000499B02C04A9938C0C430D105A9F591E0F0
:10269000C91AD1082FEF81EE94E02150804090407C
:1026A000E1F700C0000028C085B1872585B99FEFFC
:1026B00023ED80E3915020408040E1F700C000000E
:1026C00085B18C6385B985E80E942E0187E592E08B
:1026D0000E94210188EC0E942E018AE391E00E9471
:1026E00021019FEF21EE84E0915020408040E1F7EE
:1026F00000C00000C5E0D0E0489903C0C530D10556
:10270000B1F04B9B04C0499B02C04A9938C0C53008
:10271000D105A9F521E0C21AD1088FEF91EE24E08E
:10272000815090402040E1F700C0000028C085B1F2
:10273000872585B92FEF83ED90E3215080409040AD
:10274000E1F700C0000085B18C6385B985E80E947F
:102750002E0187E592E00E94210189EC0E942E0162
:102760008AE391E00E9421012FEF81EE94E0215055
:1027700080409040E1F700C00000C6E0D0E04999F9
:1027800003C0C630D105B1F04B9B04C04A9B02C0C8
:10279000499938C0C630D105A9F581E0C81AD108D9
:1027A0009FEF21EE84E0915020408040E1F700C08F
:1027B000000028C085B1862585B98FEF93ED20E311
:1027C000815090402040E1F700C0000085B18C634B
:1027D00085B985E80E942E0187E592E00E942101DB
:1027E0008AEC0E942E018AE391E00E9421018FEF82
:1027F00091EE24E0815090402040E1F700C00000BD
:10280000C7E0D0E04B9903C0C730D105E1F04A9B47
:1028100004C0499B02C0489918C1C730D10509F0CE
:1028200014C191E0C91AD1082FEF89E698E121502F
:1028300080409040E1F700C0000028E0A216B104FB
:1028400009F0F9CD3DC085B1892585B99FEF23ED0C
:1028500080E3915020408040E1F700C0000085B146
:102860008C6385B985E80E942E0187E592E00E947D
:1028700021018BEC0E942E018AE391E00E9421014C
:102880009FEF21EE84E0915020408040E1F700C0AE
:1028900000000E94310180E80E942E018FE592E045
:1028A0000E9421019FEF2DE389E491502040804058
:1028B000E1F700C00000E5012196C830D10539F4E8
:1028C0002196C830D1050CF40DCEC8E0D0E00E94AE
:1028D0003101CE010E947F01C6010E94A7019FEF36
:1028E00023ED80E3915020408040E1F700C00000DC
:1028F000D092BD02C092BC02D093BB02C093BA0278
:10290000CE010E94F3048091BC029091BD02181682
:10291000190624F01093BB020093BA028091BA0208
:102920009091BB02089709F0F7C20E94310185E837
:102930000E942E0181E792E00E9421019FEF27EA89
:1029400081E6915020408040E1F700C00000A09057
:10295000BA02B090BB02C090BC02D090BD020E94EF
:102960004B010E9479000E943B019FEF2DE282E221
:10297000915020408040E1F700C000009FEF23ED20
:1029800080E3915020408040E1F700C000000E94A9
:1029900065010E94310185E80E942E0181E792E0E5
:1029A0000E942101C6010E94A701D0E0C0E094E08E
:1029B000992E28E0822E30E2732E40E1642E1C1402
:1029C0001D040CF00DC34B994CC0209709F049C071
:1029D00085B1892585B99FEF23ED80E39150204093
:1029E0008040E1F700C0000085B18C6385B90E948A
:1029F000310185E80E942E0181E792E00E942101C9
:102A000083EC0E942E018AE391E00E942101C1E043
:102A1000D0E04B9903C0C130D105C1F14A9B04C03D
:102A2000499B02C048995AC0C130D10509F056C02F
:102A300021E0C21AD1088FEF99E628E18150904039
:102A40002040E1F700C0000049C088E0A816B104AA
:102A500009F0F1CC35CFE5013ACF89E0A82EB12CB1
:102A6000AECF4A9B04C0499B02C04899D2CF209761
:102A700081F691E0C91AD1082FEF89E698E121503B
:102A800080409040E1F700C00000C3CF85B18925A8
:102A900085B92FEF83ED90E3215080409040E1F71E
:102AA00000C0000085B18C6385B985E80E942E01C5
:102AB00081E792E00E94210184EC0E942E018AE3CA
:102AC00091E00E9421012FEF81EE94E0215080409F
:102AD0009040E1F700C00000C2E0D0E04A9903C096
:102AE000C230D105B1F04B9B04C0499B02C048994C
:102AF00038C0C230D105A9F581E0C81AD1089FEFCE
:102B000029E688E1915020408040E1F700C00000B4
:102B100028C085B1882585B98FEF93ED20E38150DA
:102B200090402040E1F700C0000085B18C6385B97A
:102B300085E80E942E0181E792E00E94210185EC48
:102B40000E942E018AE391E00E9421018FEF91EE15
:102B500024E0815090402040E1F700C00000C3E035
:102B6000D0E04B9903C0C330D105B1F04A9B04C0FB
:102B7000499B02C0489938C0C330D105A9F591E0FE
:102B8000C91AD1082FEF81EE94E021508040904087
:102B9000E1F700C0000028C085B1892585B99FEF05
:102BA00023ED80E3915020408040E1F700C0000019
:102BB00085B18C6385B985E80E942E0181E792E09A
:102BC0000E94210186EC0E942E018AE391E00E947E
:102BD00021019FEF21EE84E0915020408040E1F7F9
:102BE00000C00000C4E0D0E04A9903C0C430D10561
:102BF000B1F04B9B04C0499B02C0489938C0C43017
:102C0000D105A9F521E0C21AD1088FEF91EE24E099
:102C1000815090402040E1F700C0000028C085B1FD
:102C2000882585B92FEF83ED90E3215080409040B7
:102C3000E1F700C0000085B18C6385B985E80E948A
:102C40002E0181E792E00E94210187EC0E942E0173
:102C50008AE391E00E9421012FEF81EE94E0215060
:102C600080409040E1F700C00000C5E0D0E0489906
:102C700003C0C530D105B1F04B9B04C0499B02C0D5
:102C80004A9938C0C530D105A9F581E0C81AD108E4
:102C90009FEF21EE84E0915020408040E1F700C09A
:102CA000000028C085B1872585B98FEF93ED20E31B
:102CB000815090402040E1F700C0000085B18C6356
:102CC00085B985E80E942E0181E792E00E942101EA
:102CD00088EC0E942E018AE391E00E9421018FEF8F
:102CE00091EE24E0815090402040E1F700C00000C8
:102CF000C6E0D0E0489903C0C630D105B1F04B9B87
:102D000004C0499B02C04A9938C0C630D105A9F514
:102D100091E0C91AD1082FEF81EE94E02150804054
:102D20009040E1F700C0000028C085B1872585B933
:102D30009FEF23ED80E3915020408040E1F700C0F9
:102D4000000085B18C6385B985E80E942E0181E77A
:102D500092E00E94210189EC0E942E018AE391E019
:102D60000E9421019FEF21EE84E09150204080409D
:102D7000E1F700C00000C7E0D0E0499903C0C730C8
:102D8000D105B1F04B9B04C04A9B02C0499938C0A1
:102D9000C730D105A9F521E0C21AD1088FEF91EE15
:102DA00024E0815090402040E1F700C0000028C09E
:102DB00085B1862585B92FEF83ED90E321508040C2
:102DC0009040E1F700C0000085B18C6385B985E8CB
:102DD0000E942E0181E792E00E9421018AEC0E946C
:102DE0002E018AE391E00E9421012FEF81EE94E011
:102DF000215080409040E1F700C00000C8E0D0E0E2
:102E00004B9903C0C830D105E1F04A9B04C0499BEF
:102E100002C04899DFC0C830D10509F0DBC081E0AD
:102E2000C81AD1089FEF29E688E1915020408040E0
:102E3000E1F700C0000099E0A916B10409F0BFCD88
:102E40003DC085B1892585B98FEF93ED20E3815091
:102E500090402040E1F700C0000085B18C6385B947
:102E600085E80E942E0181E792E00E9421018BEC0F
:102E70000E942E018AE391E00E9421018FEF91EEE2
:102E800024E0815090402040E1F700C000000E9403
:102E9000310180E80E942E0189E792E00E94210121
:102EA0008FEF9DE329E4815090402040E1F700C07E
:102EB0000000E5012196C930D10539F42196C930C9
:102EC000D1050CF4CACDC9E0D0E00E943101CE0199
:102ED0000E947F01C6010E94A7018FEF93ED20E3BE
:102EE000815090402040E1F700C00000D092BD0228
:102EF000C092BC02D093BB02C093BA02CE010E9422
:102F0000F3048091BC029091BD021816190624F0BA
:102F10001093BB020093BA028091BA029091BB0257
:102F2000099789F50E94310185E80E942E0181E30D
:102F300091E00E9421018FEF97EA21E681509040B5
:102F40002040E1F700C000006091BA027091BB021E
:102F50008091BC029091BD020E94CF017093BD028E
:102F60006093BC029093BB028093BA020E94F30468
:102F70008091BC029091BD021816190624F010939E
:102F8000BB020093BA028091BA029091BB020A97E9
:102F900011F00C9410060E94310184E80E942E0169
:102FA0008BE892E00E94210180EC0E942E0185E9CD
:102FB00092E00E9421018FEF97EA21E68150904034
:102FC0002040E1F700C000001092BB021092BA024C
:102FD0000C94100629E0A216B10409F0F0CC6ECFD3
:102FE000E50173CF0E9431010E94310183E80E9404
:102FF0002E0184EA92E00E9421018FEF97EA21E6F8
:10300000815090402040E1F700C000000C94720510
:10301000F999FECF92BD81BDF89A992780B50895A0
:10302000262FF999FECF1FBA92BD81BD20BD0FB6E4
:10303000F894FA9AF99A0FBE01960895AEE0B0E0BE
:10304000E4E2F8E10C94CD1A0D891E8986E08C83A8
:103050001A8309838FEF9FE79E838D83AE01475EBE
:103060005F4F6F89788DCE0101960E9441182F81A4
:103070003885020F131FF80110822E96E4E00C949D
:10308000E91AABE0B0E0E7E4F8E10C94BF1A7C0188
:103090003B018A01FC0117821682838181FFC8C12E
:1030A000CE0101965C01F7019381F30193FD8591B7
:1030B00093FF81913F01882309F453C1853239F48C
:1030C00093FD859193FF81913F01853229F4B701EA
:1030D00090E00E94311AE7CF912C212C312CFFE196
:1030E000F31538F08B3211F190F4803209F183320C
:1030F00029F137FC3CC020ED280F2A3050F536FE70
:1031000020C08AE0989E200D1124922E06C08D3298
:1031100091F0803371F7689430F8F30193FD859155
:1031200093FF81913F018111DACF21C0689431F87A
:10313000689432F8F2CF689433F8EFCF689434F89B
:10314000ECCFEAE02E9E200D1124222E689435F853
:10315000E4CF8E3229F436FC04C1689436F8DDCF12
:103160008C3619F4689437F8D8CF8836B1F2982F96
:103170009F7D95549330E0F08336A1F18337C1F100
:10318000833509F063C02801F2E04F0E511CF801AD
:10319000C080D180692D70E036FC02C06FEF7FEFF8
:1031A000C6010E941B1A4C01689437F882010AC0BC
:1031B0000C5F1F4FFFE3F98388248394912C6501F2
:1031C000E89437F833FE2DC0522C8114910471F528
:1031D000552009F468CFB70180E290E00E94311ACF
:1031E0005A94F6CFF801808189830E5F1F4FE4CF98
:1031F0002801F2E04F0E511CF801C080D180692DEA
:1032000070E036FC02C06FEF7FEFC6010E94261A05
:103210004C018201D5CFB70180E290E00E94311AC3
:103220002A942814190409F0B0F7CECFF60137FC20
:10323000859137FE81916F01B70190E00E94311AAC
:1032400051105A94F1E08F1A9108BFCF843619F0CB
:10325000893609F077C0F80137FE6BC06081718153
:10326000828193810C5F1F4FF32DFF763F2E97FFD6
:1032700009C090958095709561957F4F8F4F9F4FB6
:10328000689437F82AE030E0A5010E94611AC82E40
:10329000CA188C2C432C36FE0CC0E89440F8C91494
:1032A00040F434FE05C032FC03C0F32DFE7E4F2EE9
:1032B000892C44FE95C0FE01EC0DF11D8081803308
:1032C00009F087C0242D297E422E842D8870582E27
:1032D00043FC95C040FE8FC09C2C821418F42C0C2B
:1032E000922C981844FE91C0B70180E390E00E94B0
:1032F000311A42FE09C088E790E041FE02C088E52D
:1033000090E0B7010E94311AC91408F48AC0CA9427
:10331000D12C9FEFC91AD90ACA0CDB1CF601829185
:103320006F01B70190E00E94311AAC14BD04B1F7EF
:103330004FCF60817181072E000C880B990B0E5FB7
:103340001F4F92CFD32CE894D4F82AE030E0853791
:1033500039F1232D297FD22E8F3601F148F488359B
:10336000A9F0F701868197812B96E2E10C94DB1A94
:10337000803749F08837A9F7D4FE02C06894D2F8A4
:1033800020E130E00DC06894D4F8F6CF34FE03C0DD
:10339000822F8660D82E20E132E002C028E030E0A3
:1033A000F801D7FE0FC060817181828193810C5F2B
:1033B0001F4FA5010E94611AC82ECA183D2CE8941F
:1033C00037F867CF6081718190E080E00E5F1F4F1A
:1033D000F0CF42FC02C0839478CF8394839475CF5E
:1033E000842D867809F471CFF6CFB70180E290E0A2
:1033F0000E94311A83948214C0F3512C73CF522C43
:103400005818821408F46ECFF8CF842D867809F40A
:103410007BCF8BE241FE80E247FC8DE2B70190E07A
:1034200071CFB70180E390E00E94311A9A946CCF7B
:103430008FEF9FEF99CFFC01059061507040011014
:10344000D8F7809590958E0F9F1F0895FC016150CD
:10345000704001900110D8F7809590958E0F9F1FB6
:1034600008950F931F93CF93DF93182F092FEB012C
:103470008B8181FD09C01FEF0FEF812F902FDF910E
:10348000CF911F910F91089582FF14C02E813F812B
:103490008C819D81281739073CF4E881F981CF019F
:1034A00001969983888310838E819F8101969F83E3
:1034B0008E83E3CFE885F985812F0995892BA1F3C8
:1034C000DACFFA01AA27283051F1203181F1E894AE
:1034D0006F936E7F6E5F7F4F8F4F9F4FAF4FB1E007
:1034E0003ED0B4E03CD0670F781F891F9A1FA11D02
:1034F000680F791F8A1F911DA11D6A0F711D811D03
:10350000911DA11D20D009F468943F912AE0269FC7
:1035100011243019305D3193DEF6CF010895462F26
:103520004770405D4193B3E00FD0C9F7F6CF462F07
:103530004F70405D4A3318F0495D31FD4052419370
:1035400002D0A9F7EACFB4E0A6959795879577952D
:103550006795BA95C9F700976105710508959B01B4
:10356000AC010A2E06945795479537952795BA953D
:10357000C9F7620F731F841F951FA01D08952F9216
:103580003F924F925F926F927F928F929F92AF92F3
:10359000BF92CF92DF92EF92FF920F931F93CF9340
:1035A000DF93CDB7DEB7CA1BDB0B0FB6F894DEBFD7
:1035B0000FBECDBF09942A88398848885F846E84FD
:1035C0007D848C849B84AA84B984C884DF80EE8047
:1035D000FD800C811B81AA81B981CE0FD11D0FB650
:1035E000F894DEBF0FBECDBFED010895F894FFCF74
:1035F0004D79205475726E0053313D4C4544342052
:1036000053343D4C45443100596F757220547572E6
:103610006E004C6966652053636F72653A202564BD
:10362000004C4556454C203130002A004C4556454B
:103630004C203130202D2053756363657373004D2A
:10364000454D4F52592047414D4500506C617920FE
:103650002D3E2053340057616974696E6720666F90
:1036600072207573657200537461727420696E20E4
:103670003A202564207300596F7572207475726E3C
:1036800000474F202100426573742053636F7265B9
:10369000004C4556454C2031004C4556454C203198
:1036A000202D2053756363657373004C4556454C5C
:1036B0002032004C4556454C2032202D2053756356
:1036C00063657373004C4556454C2033004C45569A
:1036D000454C2033202D2053756363657373004C74
:1036E0004556454C2034004C4556454C2034202D41
:1036F0002053756363657373004C4556454C203504
:10370000004C4556454C2035202D2053756363658C
:103710007373004C4556454C2036004C4556454C7D
:103720002036202D2053756363657373004C455616
:10373000454C2037004C4556454C2037202D205312
:10374000756363657373004C4556454C2038004CD7
:103750004556454C2038202D20537563636573739F
:10376000004C4556454C2039004C4556454C2039B7
:10377000202D205375636365737300535543434590
:103780005353202100434F4E47524154554C41540E
:0E379000494F4E0047414D45204F56455200CF
:00000001FF
